:020000020000FC
:040000000C9450000C
:040018000C946B00D9
:040040000C946D00AF
:1000A0004FEF4DBF40E14EBF40E249BF48E04ABF7D
:1000B0004FEF44BB40E04ABB41BB41E047BF47E094
:1000C00043BF48E342BF0AE05527662788279927A0
:1000D00078940C94690081E0189548E342BF5395E9
:1000E000543111F40E9475001895813011F40E946A
:1000F0007A000895913021F04F934EEF45BB4F9118
:1001000055276395653021F4913041F10E948900B3
:1001100008958F939F9389B390B389179F918F917F
:1001200080F031F04F934BEF45BB4F910C94A500FD
:100130005527662701E04F934DEF45BB4F910C9437
:10014000AB004F9347EF45BB4F91552766270A9564
:1001500021F610EF15BB91E00C946D000AE04F936F
:100160004FEF45BB4F91552766278827992708955C
:00000001FF
